:020000040800F2
:1000000078290020B1110008B9110008BB110008BF
:10001000BD110008BF110008C11100080000000058
:10002000000000000000000000000000C502000801
:10003000C51100080000000065030008C90300089E
:10004000CB110008CB110008CB110008CB11000820
:10005000CB110008CB110008CB110008CB11000810
:10006000CB110008CB110008CB110008CB11000800
:10007000CB110008CB110008CB110008CB110008F0
:10008000CB110008CB110008CB110008CB110008E0
:10009000CB110008CB110008CB110008CB110008D0
:1000A000CB110008CB110008CB110008CB110008C0
:1000B000CB110008CB110008CB110008CB110008B0
:1000C000CB110008CB110008CB110008A3110008C8
:1000D000CB110008CB110008CB110008CB11000890
:1000E000CB110008CB110008CB110008CB11000880
:1000F000CB110008CB110008CB110008CB11000870
:10010000CB110008CB110008CB110008CB1100085F
:10011000CB110008CB110008CB110008CB1100084F
:10012000CB110008CB110008CB110008CB1100083F
:10013000CB110008CB110008CB110008CB1100082F
:10014000CB110008CB110008CB110008CB1100081F
:10015000CB110008CB110008CB110008CB1100080F
:10016000CB110008CB110008CB110008CB110008FF
:10017000CB110008CB110008CB11000800000000D3
:10018000CB110008CB11000800F002F800F054F881
:100190000AA090E8000C82448344AAF10107DA45E2
:1001A00001D100F049F8AFF2090EBAE80F0013F0E0
:1001B000010F18BFFB1A43F001031847DCD60000FB
:1001C000FCD60000103A24BF78C878C1FAD852078C
:1001D00024BF30C830C144BF04680C6070470000C1
:1001E0000023002400250026103A28BF78C1FBD840
:1001F000520728BF30C148BF0B6070471FB50DF0D4
:1002000051F89DE8030008F0CCFD08F0ADFD0400B6
:10021000002000210DF030F8401C606008F074FBF5
:100220001FBD10B508F0E8FB10BD03B4FFF7F9FFE0
:1002300003BC08F0DAF9000008F0F3F91146FFF703
:10024000DDFF0BF01DFC044800210BF08FFC0BF0D0
:1002500029FC08F00BFA00001400002080F3098844
:100260007047EFF309807047684680F309880448B7
:100270000078C00714BF0220032080F31488704761
:10028000C8D20008DFF818C0EFF305831B0618BFBB
:100290006047EFF31483DB0708BF604700DF704758
:1002A00041C00008DFF818C0EFF305831B0618BF34
:1002B0006047EFF31483DB0708BF604700DF704738
:1002C00025C20008EFF30980816911F8021C99BB6F
:1002D00090E80F1010B5E047BDE81040EFF3098C2F
:1002E0008CE807001C4B93E80600914208BF70475A
:1002F00081B11EF0100F06BF2CED108A01200020E6
:1003000081F825002CE9F00FC1F828C00CB40CF0DE
:100310000DFB0CBC1A60D2F828C0BCE8F00F92F8B4
:10032000250000281ABFBCEC108A6FF0120E6FF087
:10033000020E8CF30988704710B5084A1268914282
:1003400009D8074C54F8214090E80F10A047EFF36C
:10035000098C8CE80F0010BD48000020F0910008C7
:10036000F091000810B50CF0A7F9BDE81040154B4E
:1003700093E80600914208BF7047EFF3098C1EF026
:10038000100F06BF2CED108A0120002081F82500F7
:100390002CE9F00FC1F828C00CB40CF0C7FA0CBC63
:1003A0001A60D2F828C0BCE8F00F92F825000028A7
:1003B0001ABFBCEC108A6FF0120E6FF0020E8CF3B5
:1003C000098870474800002010B50CF077FBCCE797
:1003D00010B50BF01FFC0CF071FBC6E72848006855
:1003E000704700B591B02748006840F0805025491B
:1003F00008602548006840F4404023490860012017
:100400000590069002200B9041050C9119210D9149
:100410004FF4A8710E9102210F910721109105A8A8
:1004200007F0CCFA0D2000900220019000200290ED
:100430004FF4A05003904FF480500490052168467B
:1004400007F0B8FC11B000BD10B500F074FF044611
:100450000CB100BFFEE70BF013FB08B100BFFEE7D5
:100460000BF020FB08B100BFFEE710BDFFF7ECFF6B
:1004700000F00CF84FF4004000F027F800BFFEE752
:1004800050000020403802400070004000B585B0A8
:100490003948006840F00800374908604FF4704060
:1004A00000900120019002200290032003906946F1
:1004B000324807F0B5F805B000BD10B54FF47044F0
:1004C00021462E4807F095F910BD10B50446B4F545
:1004D000805F09D0B4F5005F0CD0B4F5804F0FD029
:1004E000B4F5004F18D111E001221103234807F0A1
:1004F000ECF911E001225103204807F0E6F90BE086
:10050000012291031D4807F0E0F905E00122D10323
:100510001A4807F0DAF900BF00BF10BD10B5044655
:10052000B4F5805F09D0B4F5005F0DD0B4F5804F0D
:1005300011D0B4F5004F1CD114E000224FF48051CB
:100540000E4807F0C2F914E000224FF400510B48A6
:1005500007F0BBF90DE000224FF48041074807F097
:10056000B4F906E000224FF40041044807F0ADF969
:1005700000BF00BF10BD000030380240000C024038
:1005800000BFFEE7012804D0022803D0032803D1CE
:1005900001E001E000E000BF00BF00BFFEE71A4835
:1005A00010B5007848B10CF009FC30B1174900EBE8
:1005B000400001EB4010603810BD154810BD154AD1
:1005C00010B511690346082900D3FEE7124800EB75
:1005D0000110491C186011610BF0C6FF012010BD0D
:1005E00009490978002905D000684FF6FF71DFF846
:1005F0002CC000DF704704490978002903D0006847
:10060000DFF81CC000DF70474100002028090020EF
:100610001822002000000020C80B002051C600084E
:1006200079C50008F949884205D1F949096841F0BE
:100630000101F74A1160F749884205D1F449096878
:1006400041F00201F24A1160F349884205D1F049B4
:10065000096841F00401EE4A1160F049884205D171
:10066000EB49096841F00801E94A1160EC49884208
:1006700005D1E749096841F01001E54A1160E949EF
:10068000884205D1E249096841F02001E04A116041
:10069000E549884205D1DE49096841F04001DC4A5C
:1006A0001160E249884205D1D949096841F08001C9
:1006B000D74A1160DE49884205D1D549096841F41D
:1006C0008071D34A1160704708B5DA48006800901D
:1006D00008BDD9480068704730B585B005460C465E
:1006E000606A007A00F0010010B1002005B030BD52
:1006F000606A007A00F0020010B14FF0FF30F5E7B9
:10070000606A0560606A406820F00100616A4860C4
:10071000606A406820F00200616A4860606A406870
:1007200020F00400616A48601C21A06A08F075F896
:1007300021690868FFF776FF206940680090022071
:100740000190002002900390206980680490216944
:100750000868694606F064FFA1680868FFF762FF51
:10076000A068406800900220019000200290039051
:10077000A06880680490A1680868694606F050FF88
:10078000E1680868FFF74EFFE068406800900220CB
:100790000190002002900390E06880680490E16876
:1007A0000868694606F03CFF0120616A0872002073
:1007B0009CE710B50446606A007A00F0010008B9B1
:1007C000002010BD606A007A00F0020010B14FF006
:1007D000FF30F6E7A06818B1A26803CA07F009F86D
:1007E000E06818B1E26803CA07F003F8206918B19D
:1007F000226903CA06F0FDFF606918B1626903CA85
:1008000006F0F7FF0020616A087200BFD9E770B5F3
:1008100005460C46606A007A00F0010010B94FF0FE
:10082000FF3070BD606A007900F0010010B16FF018
:100830000100F6E725B1012D7ED0022D7DD13CE0EF
:10084000606A007A00F0020008B90020E9E70020A1
:100850002168486094F9180000F087FE00202168A4
:10086000086076492068884208D1694814300068D9
:1008700020F480506649143108601AE070492068FD
:10088000884208D162481030006820F480406049F6
:10089000103108600DE06B492068884208D15C483F
:1008A0001030006820F4004059491031086000E021
:1008B00000BF0120616A087247E0606A007A00F0B8
:1008C000020008B10020ACE75C492068884208D1EA
:1008D0004F481430006840F480504D49143108608E
:1008E0001AE057492068884208D14948103000680A
:1008F00040F480404649103108600DE051492068BD
:10090000884208D142481030006840F40040404915
:100910001031086000E000BF002021684860606A74
:10092000007A40F00200616A087294F9180000F041
:10093000BCFE94F9180001E004E002E000F008FEBB
:1009400003E000BF6FF003006BE700BF002068E723
:1009500010B5034603B111B96FF0040010BD506A21
:10096000007A00F0040010B94FF0FF30F6E7506A4B
:10097000007900F0010010B16FF00100EEE790681F
:1009800018B1506A007B012805D0D06828B1506AA0
:10099000007B022801D1012000E0002010B94FF0B7
:1009A000FF30DBE7506A406820F00100401C546AC9
:1009B0006060506A406820F00200546A6060506ACB
:1009C000406820F00400546A60600020946A60600F
:1009D000906A8360906A01600020946AE060946A83
:1009E00020611068406840F0400014686060106842
:1009F000406840F08000146860600020AEE710B5E9
:100A0000034603B101BB6FF0040010BD00000240BB
:100A1000303802400004024000080240000C02404E
:100A2000001002400014024000180240001C024066
:100A30000020024008D300080CD300080030014019
:100A400000380040003C0040506A007A00F004008A
:100A500010B94FF0FF3010BD506A007900F001006E
:100A600010B16FF00100F6E7D06818B1506A007B52
:100A7000012805D0906828B1506A007B022801D176
:100A8000012000E0002010B94FF0FF30E3E7506A8A
:100A9000406820F00100401C546A6060506A406861
:100AA00020F00200546A6060506A406820F0040040
:100AB000546A6060906A43600020946AA060906A03
:100AC00001600020946AE060946A206110684068C8
:100AD00040F04000146860601068406840F080009A
:100AE000146860600020B6E730B504460CB101B16F
:100AF00012B96FF0040030BD586A007A00F00400AB
:100B000010B94FF0FF30F6E7586A007900F00100A5
:100B100010B16FF00100EEE7D86808B1986810B91D
:100B20004FF0FF30E7E7586A406820F00100401CB2
:100B30005D6A6860586A406820F002005D6A68601B
:100B4000586A406820F004005D6A6860986A4160F5
:100B5000986A8460986A026000209D6AE8609D6AD5
:100B600028611868406840F0C0001D686860002077
:100B7000C1E70146886AC06870472DE9F04F85B02B
:100B8000804689461446002500260027AB46606A49
:100B9000007A00F0020018B9681E05B0BDE8F08FB9
:100BA00008F0FF00142831D1206A50B12068406855
:100BB00020F0020021684860216A086801F030FED8
:100BC00005E02068406820F0800021684860E06906
:100BD00050B12068406820F0010021684860E16958
:100BE000086801F01DFE05E02068406820F0400024
:100BF000216848601C21A06A07F00FFE606A406807
:100C000020F00100616A48600020C6E7606A007950
:100C100000F0010010B16FF00100BEE708F0FF0026
:100C200004281ED007DC78B101280FD0022812D08A
:100C300003286FD112E0102816D0112837D01228BF
:100C40003ED01328F5D140E000BF8AE045F0010511
:100C500047F0040785E045F0020582E06FF00600EA
:100C60009BE76FF0060098E76068804782460126A0
:100C700005E02AFA06F0484500D802E0761C082E66
:100C8000F7D300BF2068006820F0400021680860AA
:100C900020680168701E41EAC00021680860206871
:100CA000006840F0400021680860002075E7606837
:100CB000804721680968C1F3C201491CC8406CE73C
:100CC000A16AA1F81890002067E7606A067B012EF0
:100CD00023D1606AC06800F4C0166069B8B1B6F587
:100CE000002F14D1B9F1000F08D16269928891B236
:100CF00062691068012206F0E8FD0CE062699288E2
:100D000091B262691068002206F0DFFD03E04FF047
:100D1000FF3042E722E000203FE7022E1BD1606A4D
:100D2000C06800F40016B6F5002F11D1B9F1010F1B
:100D300006D12068006840F480702168086005E0F2
:100D40002068006820F4807021680860002024E793
:100D50004FF0FF3021E74FF0FF301EE76FF0030048
:100D60001BE700BF08F4E060B0F5407F16D007DC59
:100D700068B1B0F5807F0BD0B0F5007F17D10AE0E5
:100D8000B0F5806F0DD0B0F5A06F10D10CE011E080
:100D900047F001070EE047F002070BE047F00307BA
:100DA00008E047F0100705E06FF00700F5E66FF088
:100DB0000700F2E600BF08F47C30B0F5004F03D026
:100DC000B0F5803F04D100E005E047F4006702E0A1
:100DD0006FF00800E1E600BF08F48020B0F5802F36
:100DE00001D147F08007012D73D108F4C01048B13C
:100DF000B0F5002F2DD0B0F5801F46D0B0F5C01F44
:100E000062D109E0606918B1626903CA06F0F1FCB9
:100E100047F4407700BF5BE06069A0B16169086892
:100E2000FFF700FC606940680090022001900020FC
:100E3000029003906069806804906169086869465F
:100E400006F0EEFB02E06FF00A00A6E645F4C015DE
:100E50003EE06069A8B161690868FFF7E3FB60697B
:100E60004068009001200190002002900390616989
:100E70000868694606F0D4FB47F4407745F400253E
:100E800002E06FF00A0088E622E06069C0B16169A3
:100E90000868FFF7C7FB6069406800900220019076
:100EA000002002900390606980680490616908687E
:100EB000694606F0B5FB4BF0040B45F4801502E0E3
:100EC0006FF00A0069E603E06FF00A0065E600E0F3
:100ED00000BF606AC06802282CD108F4001018B165
:100EE000B0F5001F22D116E0606980B160694068EA
:100EF00000900220019000200290039060698068B9
:100F0000049061690868694606F08AFB02E06FF0A8
:100F10000A0042E60DE0606918B1626903CA06F092
:100F200068FC47F4007745F4001502E06FF00A0012
:100F300033E600BF606880478246012605E02AFA52
:100F400006F0484500D802E0761C082EF7D300BF13
:100F5000701E47EAC007606AC5602068006820F01C
:100F60004000216808604BF020002168486020683C
:100F70000760E8B230B9606A007A20F00400616A64
:100F8000087205E0606A007A40F00400616A087245
:100F90002068006840F04000216808600020FCE5FF
:100FA0000146486A406870472DE9F04104462068D0
:100FB000806887B2002507F0400040B1606A406851
:100FC00020F00200801C616A486045F0020507F0CD
:100FD000080040B1606A406820F00200801C616A2D
:100FE000486045F0020507F0200040B1606A4068A3
:100FF00020F00400001D616A486045F0040507F018
:101000000200002836D02068406800F0800070B3ED
:10101000A06A006860B3A06A806898B1A06A81681D
:10102000481CA26A90600E782068006800F4006096
:1010300050B1A06A8168481CA26A9060087846EAAC
:10104000002601E0A06A068B2068C660A06A0069DD
:10105000401CA16A0861A06A0069A16A0968884207
:1010600008D12068406820F080002168486001E0D5
:1010700045F0020507F00100002844D020684068D0
:1010800000F0400000283ED02068C06886B2A06A08
:101090000068A8B3A06A406888B1A06A4268501C82
:1010A000A36A586016702068006800F4006030B1D0
:1010B0003112A06A4268501CA36A58601170A06A7D
:1010C000C068401CA16AC860A06AC068A16A0968BB
:1010D000884218D12068406820F0400021684860AC
:1010E00094F9180000F0E1FA0020A16A0860606A33
:1010F000406820F00100616A486045F0010502E0A7
:10110000FFE745F0020535B1606A006818B1606A12
:10111000016828468847BDE8F08110B50446234998
:101120002046FFF7D9FA10BD10B52048FFF741FB64
:1011300010BD10B504461D492046FFF768FB10BDE1
:1011400070B504460D46194A29462046FFF700FCB3
:1011500070BD70B504460D46144A29462046FFF777
:101160004EFC70BD70B504460D4616460F4B324618
:1011700029462046FFF7B8FC70BD10B50B48FFF7B5
:10118000F8FC10BD70B504460D46084A29462046B5
:10119000FFF7F3FC70BD08B50448FFF701FF0090AE
:1011A00008BD10B50148FFF7FFFE10BD34D300089D
:1011B0000948804709480047FEE7FEE7FEE7FEE7EB
:1011C000FEE7FEE7FEE7FEE7FEE7FEE70448054927
:1011D000054A064B70470000F1110008890100081C
:1011E0007823002078290020782500207825002009
:1011F0003F48006840F470003D4908603D48006881
:1012000040F001003B49086000203A49083108607D
:101210003848006838490840364908603748091D91
:101220000860081F006820F48020091F0860002063
:1012300030490C3108604FF000602D49803908605A
:10124000704770B500200022022300240221294D9E
:1012500008352D6805F00C0020B1042806D00828B8
:1012600034D107E0264D274E356033E0264D254E1C
:1012700035602FE01F4D2D1D2D68C5F380541D4D89
:101280002D1D2D6805F03F0154B11F4DB5FBF1F543
:10129000184E361D3668C6F3881605FB06F209E0BF
:1012A000174DB5FBF1F5134E361D3668C6F388169B
:1012B00005FB06F20F4D2D1D2D68C5F301456D1C74
:1012C0006B00B2FBF3F50F4E356003E00C4D0D4E95
:1012D000356000BF00BF074D08352D68C5F3031505
:1012E0000A4E705D074D2D68C540064E356070BDD5
:1012F00088ED00E000380240FFFFF6FE10300024C9
:101300000024F4002400002000127A0028000020AD
:10131000704770B5044606F03BFF4FF47A71B0FB9E
:10132000F1F5284600F03FF900222146501E00F05A
:10133000D1F8002070BD10B54F48006840F400702F
:101340004D4908600846006840F48060086008461F
:10135000006840F480700860032000F0A9F80F20B6
:10136000FFF7D7FFFFF7D4FF002010BD704710B57F
:101370004FF0FF304149086000200860401E091D01
:10138000086000200860401E3C49103908600020B9
:101390000860401E091D086000200860401E091DED
:1013A000086000200860FFF7E1FF002010BD34480E
:1013B0000068401C32490860704731480068704737
:1013C00031B50024FFF70AF8044600BFFFF706F81E
:1013D000001B00998842F9D338BD4FF0E020006926
:1013E00020F002004FF0E021086170474FF0E0204C
:1013F000006940F002004FF0E02108617047214889
:10140000704721480068000C70471F480068C0F30F
:101410000B0070471C48406840F001001A494860C2
:1014200070471948406820F001001749486070472C
:101430001548406840F00200134948607047124860
:10144000406820F002001049486070470E4840682C
:1014500040F004000C49486070470B48406820F099
:101460000400094948607047012008490860704736
:101470000020064908607047003C024020380240C6
:101480003800002000000101002004E00004274291
:1014900010B5002807DA0A07140EA24A00F00F035D
:1014A0001B1FD45403E00A07130E9F4A135410BDA8
:1014B00000BF00F007029B4B0C3B19684FF6FF037F
:1014C00019409A4B0B4343EA0221964B0C3B19609F
:1014D00000BF70472DE9F05F80460D461646002795
:1014E00000F01AF9074639462A46334601F007004C
:1014F000C0F1070ABAF1040F02D94FF0040A01E063
:10150000C0F1070AD14600F1040ABAF1070F02D26E
:101510004FF0000A01E0A0F1030AD4464FF0010A9F
:101520000AFA09FAAAF1010A0AEA020A0AFA0CFA04
:101530004FF0010B0BFA0CFBABF1010B0BEA030BA9
:101540004AEA0B0421464046FFF7A2FFBDE8F09FA0
:1015500000BF00F01F02012191404209920002F1F8
:10156000E022C2F8001100BF704700BF00F01F0268
:10157000012191406E4A430942F8231000BF704791
:1015800000BFBFF34F8F67480C38006800F4E0607D
:1015900066490843001D63490C390860BFF34F8F4B
:1015A00000BF00BFFEE770B504462546681EB0F1D7
:1015B000807F01D301200FE0681E4FF0E0214861D9
:1015C0000F214FF0FF30FFF763FF00204FF0E021C5
:1015D000886107200861002070BD10B500F09CF8FC
:1015E00010BD2DE9F04304462046002808DA4D4F8F
:1015F00000F00F0CACF1040C17F80C703F1102E076
:10160000494F3F5C3F113D460E4606F00700C0F1D2
:101610000708B8F1040F02D94FF0040801E0C0F147
:101620000708C44600F10408B8F1070F02D24FF0D2
:10163000000801E0A0F10308474625FA07F84FF03B
:10164000010909FA0CF9A9F1010908EA0908C2F827
:1016500000804FF0010808FA07F8A8F1010808EA2D
:101660000508C3F8008000BFBDE8F08300BF00F0AC
:101670001F02012191402E4A8032430942F8231073
:1016800000BF704710B501460846294A8032430919
:1016900052F8232000F01F040123A3401A400AB18E
:1016A000012200E00022104610BD00BF00F01F0222
:1016B000012191401F4A430942F8231000BF70479F
:1016C00010B5014608461B4A8032430952F82320D0
:1016D00000F01F040123A3401A400AB1012200E0D8
:1016E0000022104610BD042808D14FF0E0210969FE
:1016F00041F004014FF0E022116107E04FF0E021DA
:10170000096921F004014FF0E02211617047704730
:1017100010B5FFF7FCFF10BD02480C380068C0F39D
:101720000220704718ED00E000E400E00000FA0538
:1017300080E100E080E200E00146002209B90120DA
:101740007047486A00B100BF022081F83500086880
:101750000268FA480240D1E901031843CB681843F4
:101760000B6918434B6918438B691843CB691843BD
:101770000B6A18430243486A042803D1D1E90B03DA
:1017800018430243086802600868426922F00702B1
:10179000486A0243486A042801D1886A02430868FB
:1017A00042610020C864012081F835000020C7E7AD
:1017B000014609B90120704791F83500022801D18E
:1017C0000120F8E70868006820F001000A6810604E
:1017D00000200A6810600A6850600A6890600A6811
:1017E000D0600A68106121200A685061D44A0868F4
:1017F00090425CD9D34A0868904201D1D24852E065
:10180000CF4A483A0868904201D1CF484BE0CD4AD0
:1018100060320868904201D1CB4844E0C84A18328F
:101820000868904201D1C8483DE0C64A18320868AD
:10183000904201D1801536E0C14A303A08689042A2
:1018400001D180152FE0BF4A78320868904201D15B
:10185000801528E0BA4A30320868904201D18015DC
:1018600021E0B84A30320868904202D14FF480201B
:1018700019E0B34A183A0868904202D14FF4802028
:1018800011E0B04A90320868904202D14FF48020B3
:1018900009E0AB4A48320868904202D14FF48020F8
:1018A00001E04FF08070A64A4C3A10601FE1A54A53
:1018B000A832086890425CD9A24A0868904201D1D7
:1018C000A14852E09E4A483A0868904201D19E4899
:1018D0004BE09C4A60320868904201D19A4844E04B
:1018E000974A18320868904201D197483DE0954ADE
:1018F00018320868904201D1801536E0904A303A9B
:101900000868904201D180152FE08E4A783208682D
:10191000904201D1801528E0894A3032086890420F
:1019200001D1801521E0874A30320868904202D107
:101930004FF4802019E0824A183A0868904202D198
:101940004FF4802011E07F4A90320868904202D123
:101950004FF4802009E07A4A48320868904202D168
:101960004FF4802001E04FF08070754A503A1060CB
:10197000BDE0744A4832086890425CD9714A0868F0
:10198000904201D1704852E06D4A483A086890424E
:1019900001D16D484BE06B4A60320868904201D13A
:1019A000694844E0664A18320868904201D16648A6
:1019B0003DE0644A18320868904201D1801536E053
:1019C0005F4A303A0868904201D180152FE05D4AA5
:1019D00078320868904201D1801528E0584A3032A8
:1019E0000868904201D1801521E0564A30320868DB
:1019F000904202D14FF4802019E0514A183A086809
:101A0000904202D14FF4802011E04E4A9032086893
:101A1000904202D14FF4802009E0494A48320868D8
:101A2000904202D14FF4802001E04FF08070454A8F
:101A3000103AD0605BE0434A0868904201D14248C6
:101A400052E03F4A483A0868904201D13E484BE094
:101A50003C4A60320868904201D13B4844E0384A31
:101A600018320868904201D137483DE0354A1832B3
:101A70000868904201D1801536E0314A303A086852
:101A8000904201D180152FE02E4A783208689042AA
:101A900001D1801528E02A4A30320868904201D1ED
:101AA000801521E0274A30320868904202D14FF475
:101AB000802019E0224A183A0868904202D14FF477
:101AC000802011E01F4A90320868904202D14FF402
:101AD000802009E01A4A48320868904202D14FF447
:101AE000802001E04FF08070164A103A9060144A4E
:101AF0000868904263D9134A0868904201D12020B7
:101B000059E00F4A483A0868904201D1202052E03B
:101B10000C4A60320868904201D120204BE0084A0C
:101B200018320868904201D1202044E0054A18325A
:101B3000086890420AD1C0143DE000003F8014F0D4
:101B4000586402401060024004008000F84A0868AF
:101B5000904201D1C0142EE0F64A0868904201D1AB
:101B6000C01428E0F24A60320868904201D1C014E3
:101B700021E0F04A483A0868904202D14FF4001040
:101B800019E0EB4A18320868904202D14FF4001075
:101B900011E0E84A18320868904202D14FF4001070
:101BA00009E0E34A78320868904202D14FF400100D
:101BB00001E04FF00060DE4A1C3A10601CE1DD4A93
:101BC0003032086890425BD9DA4A783A0868904225
:101BD00001D1202050E0D64A183A0868904201D13D
:101BE000202049E0D34A183A0868904201D12020C9
:101BF00042E0CF4A48320868904201D120203BE0C1
:101C0000CC4A603A0868904201D1C01434E0C84A16
:101C10000868904201D1C0142EE0C64A086890427C
:101C200001D1C01428E0C24A60320868904201D154
:101C3000C01421E0BF4A483A0868904202D14FF4EC
:101C4000001019E0BA4A18320868904202D14FF4E5
:101C5000001011E0B74A18320868904202D14FF4E0
:101C6000001009E0B24A78320868904202D14FF47D
:101C7000001001E04FF00060AD4A203A1060BBE078
:101C8000AC4A303A086890425BD9AA4A783A086868
:101C9000904201D1202050E0A54A183A08689042AD
:101CA00001D1202049E0A34A183A0868904201D1A6
:101CB000202042E09E4A48320868904201D120200C
:101CC0003BE09C4A603A0868904201D1C01434E07D
:101CD000974A0868904201D1C0142EE0954A0868DE
:101CE000904201D1C01428E0914A603208689042C5
:101CF00001D1C01421E08F4A483A0868904202D1CD
:101D00004FF4001019E08A4A18320868904202D154
:101D10004FF4001011E0874A18320868904202D14F
:101D20004FF4001009E0824A78320868904202D1EC
:101D30004FF4001001E04FF000607E4A883AD06016
:101D40005AE07C4A783A0868904201D1202050E05D
:101D5000774A183A0868904201D1202049E0754A34
:101D6000183A0868904201D1202042E0704A483277
:101D70000868904201D120203BE06E4A603A086832
:101D8000904201D1C01434E0694A0868904201D100
:101D9000C0142EE0674A0868904201D1C01428E0C0
:101DA000634A60320868904201D1C01421E0614A60
:101DB000483A0868904202D14FF4001019E05C4A9A
:101DC00018320868904202D14FF4001011E0594ACD
:101DD00018320868904202D14FF4001009E0544ACA
:101DE00078320868904202D14FF4001001E04FF0C1
:101DF0000060504A883A90604D4A303208689042FC
:101E00005BD94C4A783A0868904201D1082050E0EA
:101E1000474A183A0868904201D1082049E0454AEB
:101E2000183A0868904201D1082042E0404A4832FE
:101E30000868904201D108203BE03E4A603A0868B9
:101E4000904201D1401534E0394A0868904201D1EE
:101E500040152EE0374A0868904201D1401528E02D
:101E6000334A60320868904201D1401521E0314A7E
:101E7000483A0868904202D14FF4002019E02C4AF9
:101E800018320868904202D14FF4002011E0294A2C
:101E900018320868904202D14FF4002009E0244A29
:101EA00078320868904202D14FF4002001E04FF0F0
:101EB00000701F4A1C3A10601EE11E4A303208684A
:101EC00090425DD91B4A783A0868904201D10820B7
:101ED00052E0174A183A0868904201D108204BE0B6
:101EE000144A183A0868904201D1082044E0104A88
:101EF00048320868904201D108203DE00D4A603A1E
:101F00000868904201D1401536E0094A08689042BD
:101F100001D1401530E0074A0868904201D14015D0
:101F20002AE0034A60320868904205D1401523E058
:101F30002864024088600240FA4A0868904202D150
:101F40004FF4002018E0F84A0868904202D14FF49C
:101F5000002011E0F34A60320868904202D14FF449
:101F6000002009E0F04A60320868904202D14FF444
:101F7000002001E04FF00070EB4A383A1060BBE0FF
:101F8000E84A1832086890425BD9E64A303A086855
:101F9000904201D1082050E0E34A303A086890426C
:101FA00001D1082049E0DF4A30320868904201D16F
:101FB000082042E0DC4A30320868904201D1082013
:101FC0003BE0D84A183A0868904201D1401534E005
:101FD000D54A183A0868904201D140152DE0D14AFF
:101FE00048320868904201D1401526E0CE4A483276
:101FF0000868904201D140151FE0CA4A0868904223
:1020000002D14FF4002018E0C74A0868904202D17C
:102010004FF4002011E0C34A60320868904202D1B8
:102020004FF4002009E0C04A60320868904202D1B3
:102030004FF4002001E04FF00070BA4A403AD060FF
:102040005AE0B84A303A0868904201D1082050E07E
:10205000B54A303A0868904201D1082049E0B14AB7
:1020600030320868904201D1082042E0AE4A303256
:102070000868904201D108203BE0AA4A183A086853
:10208000904201D1401534E0A74A183A08689042BE
:1020900001D140152DE0A34A48320868904201D191
:1020A000401526E0A04A48320868904201D1401508
:1020B0001FE09C4A0868904202D14FF4002018E0CB
:1020C000994A0868904202D14FF4002011E0954AE5
:1020D00060320868904202D14FF4002009E0924A31
:1020E00060320868904202D14FF4002001E04FF0C6
:1020F00000708C4A403A90608B4A183208689042CF
:102100005BD9884A303A0868904201D1874850E04C
:10211000854A303A0868904201D1844849E0814AB2
:1021200030320868904201D1804842E07E4A303225
:102130000868904201D17D483BE07A4A183A086825
:10214000904201D1402034E0774A183A0868904222
:1021500001D140202DE0734A48320868904201D1F5
:10216000402026E0704A48320868904201D1402061
:102170001FE06C4A0868904202D14FF4803018E0AA
:10218000694A0868904202D14FF4803011E0654AF4
:1021900060320868904202D14FF4803009E0624A10
:1021A00060320868904202D14FF4803001E04FF471
:1021B00080005D4A343A106021E15A4A783208685A
:1021C00090425BD9574A303A0868904201D157484B
:1021D00050E0554A303A0868904201D1534849E0EE
:1021E000504A30320868904201D1504842E04E4A8D
:1021F00030320868904201D14C483BE0494A183AD5
:102200000868904201D1402034E0474A183A0868F3
:10221000904201D140202DE0424A48320868904265
:1022200001D1402026E0404A48320868904201D15E
:1022300040201FE03B4A0868904202D14FF48030B2
:1022400018E0394A0868904202D14FF4803011E01A
:10225000344A60320868904202D14FF4803009E07D
:10226000314A60320868904202D14FF4803001E078
:102270004FF480002C4A383A1060C0E0294A1832E6
:102280000868904260D9274A303A0868904201D1E4
:10229000264856E0244A303A0868904201D1234843
:1022A0004FE0204A30320868904201D11F4848E090
:1022B0001D4A30320868904201D11C4841E0194A59
:1022C000183A0868904201D140203AE0164A183A7C
:1022D0000868904201D1402033E0124A4832086831
:1022E000904201D140202CE00F4A483208689042C9
:1022F00001D1402025E00B4A0868904202D14FF4FA
:1023000080301EE0084A0868904202D14FF48030C5
:1023100017E0044A60320868904209D14FF48030D7
:102320000FE0000040600240406402400100800075
:10233000F84A0868904202D14FF4803001E04FF42F
:102340008000F54AD0605AE0F34A103208689042A3
:1023500001D1F24851E0EF4A903A0868904201D129
:10236000EE484AE0EC4A70320868904201D1EB48EE
:1023700043E0E84A303A0868904201D1E7483CE03F
:10238000E54A28320868904201D1402035E0E14A10
:10239000783A0868904201D140202EE0DE4A883227
:1023A0000868904201D1402027E0DA4A183A0868CC
:1023B000904201D1402020E0D74A40320868904244
:1023C00002D14FF4803018E0D24A603A0868904257
:1023D00002D14FF4803010E0CF4AA032086890421A
:1023E00002D14FF4803008E0CA4A0868904202D116
:1023F0004FF4803001E04FF48000C74A9060C54A36
:10240000483A086890425CD9C34A10320868904242
:1024100001D1102051E0BF4A903A0868904201D1A2
:1024200010204AE0BC4A70320868904201D1102066
:1024300043E0B84A303A0868904201D110203CE0AD
:10244000B54A28320868904201D1001535E0B14AFA
:10245000783A0868904201D100152EE0AE4A8832E1
:102460000868904201D1001527E0AA4A183A086886
:10247000904201D1001520E0A74A403208689042FE
:1024800002D14FF4801018E0A24A603A08689042E6
:1024900002D14FF4801010E09F4AA03208689042A9
:1024A00002D14FF4801008E09A4A0868904202D1A5
:1024B0004FF4801001E04FF08060964A943A10602B
:1024C0001DE1954AB832086890425CD9924A1032B0
:1024D0000868904201D1102051E08E4A903A086875
:1024E000904201D110204AE08B4A70320868904235
:1024F00001D1102043E0874A303A0868904201D168
:1025000010203CE0844A28320868904201D100152E
:1025100035E0804A783A0868904201D100152EE0F3
:102520007D4A88320868904201D1001527E0794A37
:10253000183A0868904201D1001520E0764A4032EE
:102540000868904202D14FF4801018E0714A603A56
:102550000868904202D14FF4801010E06E4AA03219
:102560000868904202D14FF4801008E0694A086878
:10257000904202D14FF4801001E04FF08060654A34
:10258000983A1060BBE0644A5832086890425BD9C0
:10259000614A10320868904201D1102051E05D4A32
:1025A000903A0868904201D110204AE05A4A7032AD
:1025B0000868904201D1102043E0564A303A08683A
:1025C000904201D110203CE0534A283208689042E2
:1025D00001D1001535E04F4A783A0868904201D1A0
:1025E00000152EE04C4A88320868904201D100154F
:1025F00027E0484A183A0868904201D1001520E0C7
:10260000454A40320868904202D14FF4801018E0E9
:10261000404A603A0868904202D14FF4801010E0BE
:102620003D4AA0320868904202D14FF4801008E081
:10263000384A0868904202D14FF4801001E04FF010
:102640008060354AD0605AE0334A103208689042C0
:1026500001D1102051E02F4A903A0868904201D1F0
:1026600010204AE02C4A70320868904201D11020B4
:1026700043E0284A303A0868904201D110203CE0FB
:10268000254A28320868904201D1001535E0214AD8
:10269000783A0868904201D100152EE01E4A88322F
:1026A0000868904201D1001527E01A4A183A0868D4
:1026B000904201D1001520E0174A4032086890424C
:1026C00002D14FF4801018E0124A603A0868904234
:1026D00002D14FF4801010E00F4AA03208689042F7
:1026E00002D14FF4801008E00A4A0868904202D1F3
:1026F0004FF4801001E04FF08060074A90600020A6
:10270000C86481F8350000BF81F8340000BF00BF05
:10271000FFF751B8A0640240006002400100800051
:1027200010B5046863608468402C04D10468A2601A
:102730000468E16003E00468A1600468E26010BD21
:102740002DE9F04104460D4616461F4600BF94F899
:102750003400012802D10220BDE8F081012084F874
:10276000340000BF022084F835002068006820F0A3
:102770000100216808603B46324629462046FFF7A3
:10278000CFFF2068006840F0010021680860002049
:10279000E2E72DE9F04104460D4616461F4600BF0C
:1027A00094F83400012802D10220BDE8F081012014
:1027B00084F8340000BF022084F8350020680068E7
:1027C00020F00100216808603B4632462946204639
:1027D000FFF7A6FF2068006840F01000216808603D
:1027E0002068006840F008002168086020680068E0
:1027F00040F00400216808602068406940F08000D3
:10280000216848612068006840F002002168086083
:102810002068006840F00100216808600020C4E7DB
:1028200070B5044600252068006820F0010021688A
:102830000860FDF7D3FD054612E0FDF7CFFD401B14
:10284000B0F57A7F0CD9E06C40F02000E06400BF66
:10285000002084F8340000BF032084F8350070BDE8
:102860002068006800F001000028E6D100BF84F86D
:10287000340000BF012084F835000020EFE72DE987
:10288000F05F04460F4615464FF0000B002F59D15C
:10289000F9492068884201D1202051E0F749206899
:1028A000884201D120204BE0F34960312068884202
:1028B00001D1202044E0F14960312068884201D1F3
:1028C00020203DE0EC4918312068884201D1C01435
:1028D00036E0EA4918312068884201D1C0142FE05F
:1028E000E54978312068884201D1C01428E0E349E5
:1028F00078312068884201D1C01421E0DE493031AE
:102900002068884202D14FF4001019E0DB493031D1
:102910002068884202D14FF4001011E0D64990316E
:102920002068884202D14FF4001009E0D349903169
:102930002068884202D14FF4001001E04FF000609F
:10294000064658E0CC492068884201D1102051E069
:10295000CA492068884201D110204BE0C649603145
:102960002068884201D1102044E0C44960312068C9
:10297000884201D110203DE0BF49183120688842CB
:1029800001D1001536E0BD4918312068884201D1D7
:1029900000152FE0B84978312068884201D1001530
:1029A00028E0B64978312068884201D1001521E03D
:1029B000B14930312068884202D14FF4801019E0CB
:1029C000AE4930312068884202D14FF4801011E0C6
:1029D000A94990312068884202D14FF4801009E063
:1029E000A64990312068884202D14FF4801001E05E
:1029F0004FF080600646FDF7F1FC834601F071B9A7
:102A00009E494831206888425CD99C480C3800684F
:102A1000994A2168914201D1082151E0974A2168E1
:102A2000914201D108214BE0934A603221689142E2
:102A300001D1082144E0914A60322168914201D1DC
:102A400008213DE08C4A18322168914201D1491594
:102A500036E08A4A18322168914201D149152FE0A7
:102A6000854A78322168914201D1491528E0834A8C
:102A700078322168914201D1491521E07E4A3032F5
:102A80002168914202D14FF4002119E07B4A303293
:102A90002168914202D14FF4002111E0764A903230
:102AA0002168914202D14FF4002109E0734A90322B
:102AB0002168914202D14FF4002101E04FF00071F2
:102AC000084021E16C49A831206888425CD96B48F4
:102AD00010380068684A2168914201D1082151E00C
:102AE000664A2168914201D108214BE0624A603276
:102AF0002168914201D1082144E0604A6032216896
:102B0000914201D108213DE05B4A1832216891428F
:102B100001D1491536E0594A18322168914201D154
:102B200049152FE0544A78322168914201D1491564
:102B300028E0524A78322168914201D1491521E0BA
:102B40004D4A30322168914202D14FF4002119E000
:102B50004A4A30322168914202D14FF4002111E0FB
:102B6000454A90322168914202D14FF4002109E098
:102B7000424A90322168914202D14FF4002101E093
:102B80004FF000710840BFE03B494831206888425F
:102B90005CD9394810384068374A2168914201D1E0
:102BA000082151E0354A2168914201D108214BE0CA
:102BB000314A60322168914201D1082144E02F4A14
:102BC00060322168914201D108213DE02A4A183241
:102BD0002168914201D1491536E0284A183221680E
:102BE000914201D149152FE0234A78322168914260
:102BF00001D1491528E0214A78322168914201D15A
:102C0000491521E01C4A30322168914202D14FF42B
:102C1000002119E0194A30322168914202D14FF463
:102C2000002111E0144A90322168914202D14FF400
:102C3000002109E0114A90322168914202D14FF4FB
:102C4000002101E04FF0007108405DE00A481038B3
:102C50000068094A2168914201D1082153E0074ADE
:102C60002168914201D108214DE0034A6032216878
:102C7000914205D1082146E01060024010640240F4
:102C8000F74A2168914201D108213CE0F54A2168C8
:102C9000914201D1491536E0F14A483A2168914202
:102CA00001D149152FE0EF4A60322168914201D1EC
:102CB000491528E0EA4A18322168914201D14915A4
:102CC00021E0E84A18322168914202D14FF40021F4
:102CD00019E0E34A303A2168914202D14FF40021D1
:102CE00011E0E04A78322168914202D14FF400218C
:102CF00009E0DB4A30322168914202D14FF40021D1
:102D000001E04FF0007108408046D549183920682D
:102D100088425CD9D2486C380068D24A183A216897
:102D2000914201D1D04950E0CD4A603A21689142A8
:102D300001D1CD4949E0CB4A48322168914201D1C5
:102D4000C94942E0C64A2168914201D1C6493CE0E6
:102D5000C44A2168914201D1402136E0C04A483A34
:102D60002168914201D140212FE0BE4A60322168A2
:102D7000914201D1402128E0B94A1832216891429C
:102D800001D1402121E0B74A18322168914202D195
:102D90004FF4803119E0B24A303A2168914202D1B1
:102DA0004FF4803111E0AF4A78322168914202D16C
:102DB0004FF4803109E0AA4A30322168914202D1B1
:102DC0004FF4803101E04FF4800108401FE1A54934
:102DD0009031206888425CD9A14870380068A14AC7
:102DE000183A2168914201D19F4950E09C4A603ACB
:102DF0002168914201D19C4949E09A4A48322168B0
:102E0000914201D1984942E0954A2168914201D10D
:102E100095493CE0934A2168914201D1402136E036
:102E20008F4A483A2168914201D140212FE08D4AD2
:102E300060322168914201D1402128E0884A18324D
:102E40002168914201D1402121E0864A183221684F
:102E5000914202D14FF4803119E0814A303A216821
:102E6000914202D14FF4803111E07E4A78322168DC
:102E7000914202D14FF4803109E0794A3032216821
:102E8000914202D14FF4803101E04FF480010840BB
:102E9000BDE074493031206888425CD971482838D7
:102EA0004068704A183A2168914201D16E4950E059
:102EB0006B4A603A2168914201D16B4949E0694A05
:102EC00048322168914201D1674942E0644A216851
:102ED000914201D164493CE0624A2168914201D1AA
:102EE000402136E05E4A483A2168914201D14021B2
:102EF0002FE05C4A60322168914201D1402128E0F4
:102F0000574A18322168914201D1402121E0554AA7
:102F100018322168914202D14FF4803119E0504AB1
:102F2000303A2168914202D14FF4803111E04D4A8C
:102F300078322168914202D14FF4803109E0484A49
:102F400030322168914202D14FF4803101E04FF4D8
:102F5000800108405BE0434828380068414A183A3D
:102F60002168914201D1404950E03D4A603A2168D0
:102F7000914201D13C4949E03A4A483221689142A4
:102F800001D1394942E0364A2168914201D136499E
:102F90003CE0344A2168914201D1402136E0304A78
:102FA000483A2168914201D140212FE02D4A6032F8
:102FB0002168914201D1402128E0294A1832216834
:102FC000914201D1402121E0264A183221689142E4
:102FD00002D14FF4803119E0214A303A2168914200
:102FE00002D14FF4803111E01E4A783221689142BB
:102FF00002D14FF4803109E0194A30322168914200
:1030000002D14FF4803101E04FF480010840814645
:10301000134918392068884266D911486C3800680D
:10302000104A183A2168914202D10F49C91C59E04F
:103030000B4A603A2168914202D10B49C91C51E008
:10304000084A48322168914202D10749C91C49E027
:10305000034A2168914209D10349C91C42E000009A
:10306000706402402860024001008000F84A216834
:10307000914201D1891535E0F64A2168914201D18A
:1030800089152FE0F24A60322168914201D18915F9
:1030900028E0F04A60322168914201D1891521E08F
:1030A000EB4A18322168914202D14FF4802119E095
:1030B000E84A18322168914202D14FF4802111E090
:1030C000E34A78322168914202D14FF4802109E02D
:1030D000E04A78322168914202D14FF4802101E028
:1030E0004FF0807108401FE1D94990312068884233
:1030F0005CD9D84828380068D54A183A21689142E6
:1031000001D1D54950E0D34A183A2168914201D102
:10311000D14949E0CE4A48322168914201D1CE4995
:1031200042E0CC4A48322168914201D1CA493BE091
:10313000C74A2168914201D1891535E0C54A216805
:10314000914201D189152FE0C14A60322168914234
:1031500001D1891528E0BF4A60322168914201D12E
:10316000891521E0BA4A18322168914202D14FF400
:10317000802119E0B74A18322168914202D14FF4F8
:10318000802111E0B24A78322168914202D14FF495
:10319000802109E0AF4A78322168914202D14FF490
:1031A000802101E04FF080710840BDE0A849303136
:1031B000206888425CD9A64828384068A44A183A52
:1031C0002168914201D1A44950E0A24A183A2168ED
:1031D000914201D1A04949E09D4A4832216891427B
:1031E00001D19D4942E09B4A48322168914201D178
:1031F00099493BE0964A2168914201D1891535E011
:10320000944A2168914201D189152FE0904A603299
:103210002168914201D1891528E08E4A60322168E7
:10322000914201D1891521E0894A183221689142E1
:1032300002D14FF4802119E0864A18322168914268
:1032400002D14FF4802111E0814A78322168914205
:1032500002D14FF4802109E07E4A78322168914200
:1032600002D14FF4802101E04FF0807108405BE013
:10327000774828380068764A183A2168914201D187
:10328000754950E0734A183A2168914201D1724958
:1032900049E06F4A48322168914201D16E4942E0CB
:1032A0006C4A48322168914201D16B493BE0684A3F
:1032B0002168914201D1891535E0664A2168914221
:1032C00001D189152FE0624A60322168914201D113
:1032D000891528E05F4A60322168914201D1891541
:1032E00021E05B4A18322168914202D14FF48021DB
:1032F00019E0584A18322168914202D14FF48021D6
:1033000011E0534A78322168914202D14FF4802172
:1033100009E0504A78322168914202D14FF480216D
:1033200001E04FF0807108408246B8F1000F05D1EE
:10333000B9F1000F02D1BAF1000F73D0B8F1000F4C
:1033400063D0E06C40F00100E06442493031206815
:1033500088425BD93E4918392068884201D108204B
:1033600050E03C4918392068884201D1082049E0E2
:10337000374948312068884201D1082042E0354968
:1033800048312068884201D108203BE0304920685C
:10339000884201D1401535E02E492068884201D18C
:1033A00040152FE02A4960312068884201D140153C
:1033B00028E0284960312068884201D1401521E089
:1033C000234918312068884202D14FF4002019E0C7
:1033D000204918312068884202D14FF4002011E0C2
:1033E0001B4978312068884202D14FF4002009E05F
:1033F000184978312068884202D14FF4002001E05A
:103400004FF0007013491C39086023E110499031D6
:103410002068884262D90E4918392068884202D152
:10342000082057E0F5E30B4918392068884201D19C
:1034300008204FE0064948312068884201D1082021
:1034400048E0044948312068884207D1082041E01B
:10345000286002402864024004008000F849206887
:10346000884201D1401535E0F6492068884201D1F3
:1034700040152FE0F24960312068884201D14015A3
:1034800028E0F04960312068884201D1401521E0F0
:10349000EB4918312068884202D14FF4002019E02E
:1034A000E84918312068884202D14FF4002011E029
:1034B000E34978312068884202D14FF4002009E0C6
:1034C000E04978312068884202D14FF4002001E0C1
:1034D0004FF00070DB4920390860BBE0D84930313B
:1034E000206888425BD9D64918392068884201D1C2
:1034F000082050E0D34918392068884201D10820BB
:1035000049E0CF4948312068884201D1082042E093
:10351000CC4948312068884201D108203BE0C849A5
:103520002068884201D1401535E0C64920688842AC
:1035300001D140152FE0C24960312068884201D195
:10354000401528E0BF4960312068884201D140150C
:1035500021E0BB4918312068884202D14FF4002095
:1035600019E0B84918312068884202D14FF4002090
:1035700011E0B34978312068884202D14FF400202D
:1035800009E0B04978312068884202D14FF4002028
:1035900001E04FF00070AA492839C8605AE0A849F4
:1035A00018392068884201D1082050E0A54918390F
:1035B0002068884201D1082049E0A14948312068AB
:1035C000884201D1082042E09E4948312068884263
:1035D00001D108203BE09A492068884201D140157A
:1035E00035E098492068884201D140152FE0944980
:1035F00060312068884201D1401528E0914960314E
:103600002068884201D1401521E08D491831206899
:10361000884202D14FF4002019E08A49183120680D
:10362000884202D14FF4002011E0854978312068AA
:10363000884202D14FF4002009E0824978312068A5
:10364000884202D14FF4002001E04FF000707C4925
:1036500028398860B9F1000F63D0E06C40F00200B7
:10366000E06478493031206888425BD97449183960
:103670002068884201D1744850E0724918392068A6
:10368000884201D1704849E06D494831206888423C
:1036900001D16D4842E06B4948312068884201D130
:1036A00069483BE066492068884201D1402035E006
:1036B00064492068884201D140202FE06049603190
:1036C0002068884201D1402028E05E4960312068AE
:1036D000884201D1402021E05949183120688842B0
:1036E00002D14FF4803019E05649183120688842E1
:1036F00002D14FF4803011E051497831206888427E
:1037000002D14FF4803009E04E4978312068884278
:1037100002D14FF4803001E04FF4800049491C3958
:10372000086020E146499031206888425BD94449CD
:1037300018392068884201D1434850E0414918397E
:103740002068884201D1404849E03D49483120681D
:10375000884201D13C4842E03A49483120688842D9
:1037600001D139483BE036492068884201D14020E8
:1037700035E034492068884201D140202FE03049AB
:1037800060312068884201D1402028E02D49603115
:103790002068884201D1402021E029491831206861
:1037A000884202D14FF4803019E026491831206850
:1037B000884202D14FF4803011E0214978312068ED
:1037C000884202D14FF4803009E01E4978312068E8
:1037D000884202D14FF4803001E04FF48000194953
:1037E00020390860BFE016493031206888425FD92F
:1037F000134918392068884201D1134854E011490F
:1038000018392068884201D10F484DE00C494831F1
:103810002068884201D10C4846E00A4948312068B6
:10382000884201D108483FE005492068884201D11B
:10383000402039E003492068884207D1402033E026
:10384000286002402864024001008000F849206896
:10385000884201D1402027E0F6492068884201D102
:10386000402021E0F24948392068884202D14FF4D3
:10387000803019E0EF4948392068884202D14FF47E
:10388000803011E0EA4918312068884202D14FF4B3
:10389000803009E0E74918312068884202D14FF4AE
:1038A000803001E04FF48000E1498839C8605AE077
:1038B000DF4978392068884201D1DF4850E0DD498E
:1038C00078392068884201D1DB4849E0D849183965
:1038D0002068884201D1D84842E0D649183920688A
:1038E000884201D1D4483BE0D14960392068884200
:1038F00001D1402034E0CF4960392068884201D1AD
:1039000040202DE0CA492068884201D1402027E0AC
:10391000C8492068884201D1402021E0C449483983
:103920002068884202D14FF4803019E0C1494839FB
:103930002068884202D14FF4803011E0BC49183130
:103940002068884202D14FF4803009E0B94918312B
:103950002068884202D14FF4803001E04FF48000AB
:10396000B34988398860BAF1000F67D0E06C40F045
:103970000400E064AF493039206888425FD9AC491F
:1039800078392068884202D1AB48C01C53E0A9496D
:1039900078392068884202D1A748C01C4BE0A4496E
:1039A00018392068884202D1A348C01C43E0A149CD
:1039B00018392068884202D19F48C01C3BE09C49CE
:1039C00060392068884201D1801534E09949603916
:1039D0002068884201D180152DE0954920688842F1
:1039E00001D1801527E093492068884201D18015D4
:1039F00021E08F4948392068884202D14FF4802065
:103A000019E08C4948392068884202D14FF480205F
:103A100011E0874918312068884202D14FF4802094
:103A200009E0844918312068884202D14FF480208F
:103A300001E04FF080707F497C3908602FE17C49BC
:103A40003031206888425FD97949783920688842C6
:103A500002D17948C01C53E0764978392068884201
:103A600002D17548C01C4BE0714918392068884262
:103A700002D17148C01C43E06E4918392068884261
:103A800002D16D48C01C3BE069496039206888421A
:103A900001D1801534E0674960392068884201D13E
:103AA00080152DE062492068884201D1801527E009
:103AB00060492068884201D1801521E05C4948397D
:103AC0002068884202D14FF4802019E059494839D2
:103AD0002068884202D14FF4802011E05449183107
:103AE0002068884202D14FF4802009E05149183102
:103AF0002068884202D14FF4802001E04FF08070AE
:103B00004C4980390860CAE0494930392068884208
:103B10005FD9474978392068884202D14648C01C9D
:103B200053E0444978392068884202D14248C01C99
:103B30004BE03F4918392068884202D13E48C01CFA
:103B400043E03C4918392068884202D13A48C01CF9
:103B50003BE0374960392068884201D1801534E064
:103B6000344960392068884201D180152DE0304900
:103B70002068884201D1801527E02E4920688842BC
:103B800001D1801521E02A4948392068884202D1B4
:103B90004FF4802019E0274948392068884202D133
:103BA0004FF4802011E0224918312068884202D168
:103BB0004FF4802009E01F4918312068884202D163
:103BC0004FF4802001E04FF0807019498839C860B7
:103BD00065E0174978392068884202D11648C01C30
:103BE0005AE0144978392068884202D11248C01C32
:103BF00052E00F4918392068884202D10E48C01C93
:103C00004AE00C4918392068884203D10A48C01C90
:103C100042E04FE0064960392068884201D18015B2
:103C20003AE0044960392068884207D1801533E0C2
:103C3000886002408864024001008000F9492068E1
:103C4000884201D1801527E0F7492068884201D1D8
:103C5000801521E0F34948392068884202D14FF4A9
:103C6000802019E0F04948392068884202D14FF499
:103C7000802011E0EB4918312068884202D14FF4CE
:103C8000802009E0E84918312068884202D14FF4C9
:103C9000802001E04FF08070E2498839886004207C
:103CA00084F8350000BF002084F8340000BF0120F4
:103CB000BDE8F09F681CA0B12DB1FCF78FFBA0EB15
:103CC0000B00A8420DD9E06C40F02000E064032016
:103CD00084F8350000BF002084F8340000BF0320C2
:103CE000E6E7D14930392068884204D9CE48843883
:103CF0000068304017E0CB4930312068884204D951
:103D0000C9488838006830400DE0C649303920681D
:103D1000884204D9C34888384068304003E0C1482D
:103D200088380068304000283EF46AAE002F72D117
:103D30002068006800F4802000286DD0BA4930392E
:103D4000206888425BD9B74978392068884201D118
:103D5000102050E0B44978392068884201D1102001
:103D600049E0B04918392068884201D1102042E06A
:103D7000AD4918392068884201D110203BE0A9499B
:103D800060392068884201D1001534E0A6496039C5
:103D90002068884201D100152DE0A24920688842A0
:103DA00001D1001527E0A0492068884201D1001503
:103DB00021E09C4948392068884202D14FF48010A4
:103DC00019E0994948392068884202D14FF480109F
:103DD00011E0944918312068884202D14FF48010D4
:103DE00009E0914918312068884202D14FF48010CF
:103DF00001E04FF080608C497C39086021E18949FD
:103E00003031206888425DD98649783920688842F7
:103E100003D1102052E0F4E3A5E283497839206809
:103E2000884201D1102049E07E4918392068884233
:103E300001D1102042E07C4918392068884201D124
:103E400010203BE0774960392068884201D1001595
:103E500034E0754960392068884201D100152DE0B1
:103E600070492068884201D1001527E06E4920681A
:103E7000884201D1001521E06A494839206888420A
:103E800002D14FF4801019E0674948392068884210
:103E900002D14FF4801011E0624918312068884245
:103EA00002D14FF4801009E05F4918312068884240
:103EB00002D14FF4801001E04FF080605A49803900
:103EC0000860BEE057493039206888425BD95549BF
:103ED00078392068884201D1102050E05249783961
:103EE0002068884201D1102049E04E4918392068E5
:103EF000884201D1102042E04B491839206888429D
:103F000001D110203BE0474960392068884201D147
:103F1000001534E0444960392068884201D1001519
:103F20002DE040492068884201D1001527E03E4934
:103F30002068884201D1001521E03A4948392068BB
:103F4000884202D14FF4801019E03749483920687F
:103F5000884202D14FF4801011E0324918312068B4
:103F6000884202D14FF4801009E02F4918312068AF
:103F7000884202D14FF4801001E04FF0806029495F
:103F80008839C8605DE0274978392068884201D1C6
:103F9000102054E0244978392068884201D110204B
:103FA0004DE0204918392068884201D1102046E0B0
:103FB0001D4918392068884201D110203FE0194975
:103FC00060392068884201D1001538E0164960390F
:103FD0002068884201D1001531E0124920688842EA
:103FE00001D100152BE010492068884201D100154D
:103FF00025E00C4948392068884202D14FF48010EE
:104000001DE0094948392068884202D14FF48010E8
:1040100015E0044918312068884207D14FF4801018
:104020000DE000008860024088640240F949206881
:10403000884202D14FF4801001E04FF08060F649D1
:104040008860F4494839206888425CD9F2491031C7
:104050002068884201D1202051E0EE499039206843
:10406000884201D120204AE0EB4970312068884223
:1040700001D1202043E0E74930392068884201D14E
:1040800020203CE0E44928312068884201D1C01456
:1040900035E0E04978392068884201D1C0142EE02B
:1040A000DD4988312068884201D1C01427E0D94910
:1040B00018392068884201D1C01420E0D649403127
:1040C0002068884202D14FF4001018E0D1496039CD
:1040D0002068884202D14FF4001010E0CE49A03190
:1040E0002068884202D14FF4001008E0C9492068D6
:1040F000884202D14FF4001001E04FF00060C54942
:10410000943908601DE1C449B831206888425CD9FF
:10411000C14910312068884201D1202051E0BD49B9
:1041200090392068884201D120204AE0BA49703194
:104130002068884201D1202043E0B6493039206808
:10414000884201D120203CE0B349283120688842D0
:1041500001D1C01435E0AF4978392068884201D1D7
:10416000C0142EE0AC4988312068884201D1C014C7
:1041700027E0A84918392068884201D1C01420E0FE
:10418000A54940312068884202D14FF4001018E060
:10419000A04960392068884202D14FF4001010E035
:1041A0009D49A0312068884202D14FF4001008E0F8
:1041B00098492068884202D14FF4001001E04FF086
:1041C0000060944998390860BBE0934958312068F1
:1041D00088425BD9904910312068884201D1202063
:1041E00051E08C4990392068884201D120204AE072
:1041F000894970312068884201D1202043E08549F7
:1042000030392068884201D120203CE082492831A1
:104210002068884201D1C01435E07E497839206891
:10422000884201D1C0142EE07B4988312068884241
:1042300001D1C01427E0774918392068884201D19C
:10424000C01420E0744940312068884202D14FF404
:10425000001018E06F4960392068884202D14FF49D
:10426000001010E06C49A0312068884202D14FF460
:10427000001008E067492068884202D14FF400101E
:1042800001E04FF000606449C8605AE062491031B3
:104290002068884201D1202051E05E499039206891
:1042A000884201D120204AE05B4970312068884271
:1042B00001D1202043E0574930392068884201D19C
:1042C00020203CE0544928312068884201D1C014A4
:1042D00035E0504978392068884201D1C0142EE079
:1042E0004D4988312068884201D1C01427E04949EE
:1042F00018392068884201D1C01420E04649403175
:104300002068884202D14FF4001018E0414960391A
:104310002068884202D14FF4001010E03E49A031DD
:104320002068884202D14FF4001008E03949206823
:10433000884202D14FF4001001E04FF0006036498E
:1043400088602068006800F4002018B9112084F803
:10435000350017E32068006800F4002090B32120A6
:1043600084F835000EE32B4948392068884262D929
:10437000294910312068884201D1102057E0254991
:1043800090392068884201D1102050E022497031D4
:104390002068884201D1102049E01E493039206848
:1043A000884201D1102042E01B4928312068884210
:1043B00001D100153BE0174978392068884202D1C5
:1043C000001534E0DEE2144988312068884201D1CA
:1043D00000152CE00F4918392068884201D10015DA
:1043E00025E00D4940312068884202D14FF4801009
:1043F0001DE0084960392068884202D14FF48010DE
:1044000015E00549A0312068884207D14FF480109B
:104410000DE00000A064024000600240F7492068FF
:10442000884202D14FF4801001E04FF08060F349E0
:10443000943908601FE1F249206888425CD9F0494C
:10444000A8392068884201D1102051E0EB49903909
:104450002068884201D110204AE0E94948392068A3
:10446000884201D1102043E0E44930392068884275
:1044700001D110203CE0E24990392068884201D106
:10448000001535E0DD4978392068884201D10015F2
:104490002EE0DB4930392068884201D1001527E041
:1044A000D64918392068884201D1001520E0D44946
:1044B00078392068884202D14FF4801018E0CF4943
:1044C00060392068884202D14FF4801010E0CC4956
:1044D00018392068884202D14FF4801008E0C7499B
:1044E0002068884202D14FF4801001E04FF08060D4
:1044F000C24998390860BEE0C149603920688842E5
:104500005CD9BF49A8392068884201D1102051E008
:10451000BA4990392068884201D110204AE0B84950
:1045200048392068884201D1102043E0B34930392E
:104530002068884201D110203CE0B14990392068C0
:10454000884201D1001535E0AC49783920688842AD
:1045500001D100152EE0AA4930392068884201D1E6
:10456000001527E0A54918392068884201D10015B7
:1045700020E0A34978392068884202D14FF48010A6
:1045800018E09E4960392068884202D14FF48010BB
:1045900010E09B4918392068884202D14FF48010FE
:1045A00008E096492068884202D14FF4801001E06B
:1045B0004FF080609249B839C8605CE09049A839F2
:1045C0002068884201D1102052E08C49903920683F
:1045D000884201D110204BE089494839206888423F
:1045E00001D1102044E0854930392068884201D14A
:1045F00010203DE0824990392068884202D10015A0
:1046000036E0C4E17D4978392068884201D100153F
:104610002EE07B4930392068884201D1001527E01F
:10462000764918392068884201D1001520E0744984
:1046300078392068884202D14FF4801018E06F4921
:1046400060392068884202D14FF4801010E06C4934
:1046500018392068884202D14FF4801008E0674979
:104660002068884202D14FF4801001E04FF0806052
:104670006349B839886061494839206888425CD903
:104680005F49A8392068884201D1202051E05B4968
:1046900090392068884201D120204AE058494839A1
:1046A0002068884201D1202043E0544930392068F5
:1046B000884201D120203CE051499039206888424D
:1046C00001D1C01435E04D4978392068884201D1C4
:1046D000C0142EE04A4930392068884201D1C01404
:1046E00027E0464918392068884201D1C01420E0EB
:1046F000434978392068884202D14FF4001018E00D
:104700003E4960392068884202D14FF4001010E021
:104710003B4918392068884202D14FF4001008E064
:1047200036492068884202D14FF4001001E04FF072
:10473000006032499439086021E13149206888429B
:1047400060D92F49A8392068884201D1202051E042
:104750002A4990392068884201D120204AE028491E
:1047600048392068884201D1202043E0234930396C
:104770002068884201D120203CE0214990392068FE
:10478000884201D1C01435E01C497839206888423C
:1047900001D1C0142EE01A4930392068884201D175
:1047A000C01427E0154918392068884201D1C01487
:1047B00020E0134978392068884202D14FF4001074
:1047C00018E00E4960392068884202D14FF4001089
:1047D00010E00B4918392068884202D14FF40010CC
:1047E00008E006492068884202D14FF4001001E039
:1047F0004FF00060014998390860C0E0A0640240B1
:10480000B8600240F749206888425CD9F5494839C8
:104810002068884201D1202051E0F3492068884275
:1048200001D120204BE0EF4918312068884201D1A6
:10483000202044E0EC4960312068884201D12020EA
:104840003DE0E84930392068884201D1C01436E0A3
:10485000E54918312068884201D1C0142FE0E149B0
:1048600030312068884201D1C01428E0DE49783117
:104870002068884201D1C01421E0DA491839206843
:10488000884202D14FF4001019E0D7493031206836
:10489000884202D14FF4001011E0D249483120681B
:1048A000884202D14FF4001009E0CF4990312068CE
:1048B000884202D14FF4001001E04FF00060C94976
:1048C0005839C8605BE0C74948392068884201D13F
:1048D000202051E0C4492068884201D120204BE0CB
:1048E000C04918312068884201D1202044E0BE49E7
:1048F00060312068884201D120203DE0B94930393B
:104900002068884201D1C01436E0B74918312068C8
:10491000884201D1C0142FE0B2493031206888426A
:1049200001D1C01428E0B04978312068884201D113
:10493000C01421E0AB4918392068884202D14FF4F5
:10494000001019E0A84930312068884202D14FF4A4
:10495000001011E0A34948312068884202D14FF489
:10496000001009E0A04990312068884202D14FF43C
:10497000001001E04FF000609A495839886011201A
:1049800084F8350000BF002084F834001DE320685F
:10499000006800F48020A0B3934948312068884221
:1049A0005DD9904948392068884201D1102052E0F1
:1049B0008D492068884201D110204CE08949183186
:1049C0002068884201D1102045E087496031206885
:1049D000884201D110203EE0824930392068884267
:1049E00001D1001537E0804918312068884201D193
:1049F000001530E07B4930312068884202D1001533
:104A000029E060E1784978312068884201D10015B9
:104A100021E0744918392068884202D14FF480108F
:104A200019E0714930312068884202D14FF480107A
:104A300011E06C4948312068884202D14FF480105F
:104A400009E0694990312068884202D14FF4801012
:104A500001E04FF080606449091F086021E161496D
:104A60006031206888425CD95E49483920688842B4
:104A700001D1102051E05C492068884201D110200A
:104A80004BE0584918312068884201D1102044E099
:104A9000554960312068884201D110203DE05149DC
:104AA00030392068884201D1001536E04E4918316E
:104AB0002068884201D100152FE04A493031206832
:104AC000884201D1001528E04749783120688842A2
:104AD00001D1001521E0434918392068884202D1EC
:104AE0004FF4801019E0404930312068884202D1EB
:104AF0004FF4801011E03B4948312068884202D1D0
:104B00004FF4801009E0384990312068884202D182
:104B10004FF4801001E04FF080603349083908609D
:104B2000BFE030492068884260D92E494839206862
:104B3000884201D1102051E02B492068884201D1E0
:104B400010204BE0274918312068884201D11020FD
:104B500044E0254960312068884201D110203DE0C1
:104B6000204930392068884201D1001536E01E49BD
:104B700018312068884201D100152FE019493031E1
:104B80002068884201D1001528E017497831206853
:104B9000884201D1001521E0124918392068884265
:104BA00002D14FF4801019E00F493031206888425B
:104BB00002D14FF4801011E00A4948312068884240
:104BC00002D14FF4801009E00749903120688842F3
:104BD00002D14FF4801001E04FF080600149583954
:104BE000C8605EE05860024010640240F8492068E6
:104BF000884201D1102051E0F6492068884201D155
:104C000010204BE0F24960312068884201D1102029
:104C100044E0F04960312068884201D110203DE035
:104C2000EB4918312068884201D1001536E0E94986
:104C300018312068884201D100152FE0E44978310D
:104C40002068884201D1001528E0E24978312068C7
:104C5000884201D1001521E0DD49303120688842C9
:104C600002D14FF4801019E0DA49303120688842CF
:104C700002D14FF4801011E0D5499031206888426C
:104C800002D14FF4801009E0D24990312068884267
:104C900002D14FF4801001E04FF08060CC49103910
:104CA00088602068006800F4002018B9312084F87A
:104CB00035008AE12068006800F4002080B34120BC
:104CC00084F8350081E1C3494831206888425CD9C5
:104CD000BF492068884201D1102052E0BD492068B8
:104CE000884201D110204CE0B949603120688842E7
:104CF00001D1102045E0B74960312068884201D1D8
:104D000010203EE0B24918312068884201D10015D8
:104D100037E0B04918312068884202D1001530E0F0
:104D200053E1AB4978312068884201D1001528E071
:104D3000A84978312068884201D1001521E0A449B2
:104D400030312068884202D14FF4801019E0A14927
:104D500030312068884202D14FF4801011E09C4924
:104D600090312068884202D14FF4801009E09949BF
:104D700090312068884202D14FF4801001E04FF05A
:104D800080609449091F08601CE19149A83120689E
:104D900088425BD98E492068884201D1102051E0B9
:104DA0008C492068884201D110204BE0884960314D
:104DB0002068884201D1102044E086496031206893
:104DC000884201D110203DE0814918312068884295
:104DD00001D1001536E07F4918312068884201D1A1
:104DE00000152FE07A4978312068884201D10015FA
:104DF00028E0784978312068884201D1001521E007
:104E0000734930312068884202D14FF4801019E094
:104E1000704930312068884202D14FF4801011E08F
:104E20006B4990312068884202D14FF4801009E02C
:104E3000684990312068884202D14FF4801001E027
:104E40004FF08060634908390860BBE06049483131
:104E5000206888425BD95E492068884201D11020D1
:104E600051E05C492068884201D110204BE058494C
:104E700060312068884201D1102044E055496031FA
:104E80002068884201D110203DE051491831206846
:104E9000884201D1001536E04E4918312068884219
:104EA00001D100152FE04A4978312068884201D1AC
:104EB000001528E0474978312068884201D1001563
:104EC00021E0434930312068884202D14FF48010FC
:104ED00019E0404930312068884202D14FF48010F7
:104EE00011E03B4990312068884202D14FF4801094
:104EF00009E0384990312068884202D14FF480108F
:104F000001E04FF0806032491039C8605AE0304902
:104F10002068884201D1102051E02E492068884243
:104F200001D110204BE02A4960312068884201D12C
:104F3000102044E0274960312068884201D11020C8
:104F40003DE0234918312068884201D1001536E040
:104F5000204918312068884201D100152FE01C49F2
:104F600078312068884201D1001528E0194978314C
:104F70002068884201D1001521E0154930312068B0
:104F8000884202D14FF4801019E012493031206874
:104F9000884202D14FF4801011E00D499031206811
:104FA000884202D14FF4801009E00A49903120680C
:104FB000884202D14FF4801001E04FF08060044934
:104FC00010398860312084F835000020FEF770BE6B
:104FD000106002401064024010B50446F949206890
:104FE00088425DD9F74854380068F74A21689142F1
:104FF00001D1082152E0F34A483A2168914201D197
:1050000008214BE0F04A60322168914201D1082129
:1050100044E0EC4A18322168914201D108213DE078
:10502000E94A18322168914201D1491536E0E54A32
:10503000303A2168914201D149152FE0E24A783295
:105040002168914201D1491528E0DE4A30322168B9
:10505000914201D1491521E0DB4A30322168914269
:1050600002D14FF4002119E0D64A183A2168914242
:1050700002D14FF4002111E0D34A903221689142CD
:1050800002D14FF4002109E0CE4A48322168914212
:1050900002D14FF4002101E04FF00071084022E1FD
:1050A000C949A831206888425DD9C6485838006887
:1050B000C54A2168914201D1082152E0C14A483ACB
:1050C0002168914201D108214BE0BF4A603221683A
:1050D000914201D1082144E0BA4A18322168914234
:1050E00001D108213DE0B84A18322168914201D12E
:1050F000491536E0B34A303A2168914201D1491549
:105100002FE0B14A78322168914201D1491528E057
:10511000AC4A30322168914201D1491521E0AA4AB6
:1051200030322168914202D14FF4002119E0A54AA2
:10513000183A2168914202D14FF4002111E0A24AAD
:1051400090322168914202D14FF4002109E09D4A3A
:1051500048322168914202D14FF4002101E04FF022
:1051600000710840BFE098494831206888425DD905
:10517000954810384068944A2168914201D108212D
:1051800052E0904A483A2168914201D108214BE00F
:105190008D4A60322168914201D1082144E0894A58
:1051A00018322168914201D108213DE0864A183227
:1051B0002168914201D1491536E0824A303A21688E
:1051C000914201D149152FE07F4A783221689142FE
:1051D00001D1491528E07B4A30322168914201D142
:1051E000491521E0784A30322168914202D14FF4CA
:1051F000002119E0734A183A2168914202D14FF414
:10520000002111E0704A90322168914202D14FF49E
:10521000002109E06B4A48322168914202D14FF4E3
:10522000002101E04FF0007108405CE06648103852
:105230000068654A2168914201D1082152E0614A23
:10524000483A2168914201D108214BE05E4A603220
:105250002168914201D1082144E05A4A183221685C
:10526000914201D108213DE0574A1832216891420C
:1052700001D1491536E0534A303A2168914201D1B3
:1052800049152FE0504A78322168914201D14915E1
:1052900028E04C4A30322168914201D1491521E081
:1052A000494A30322168914202D14FF4002119E07D
:1052B000444A183A2168914202D14FF4002111E08A
:1052C000414A90322168914202D14FF4002109E015
:1052D0003C4A48322168914202D14FF4002101E05A
:1052E0004FF000710840002870D02068006800F07E
:1052F00004000028F8D02068006820F0040021682D
:10530000086030492068884261D92F492068884266
:1053100001D1082052E02B4948392068884201D148
:1053200008204BE0284960312068884201D10820DC
:1053300044E0244918312068884201D108203DE02A
:10534000214918312068884201D1401536E01D49B5
:1053500030392068884201D140152FE01A49783150
:105360002068884201D1401528E016493031206874
:10537000884201D1401521E013493031206888422C
:1053800002D14FF4002019E00E49183920688842F4
:1053900002D14FF4002011E00B499031206888427F
:1053A00002D14FF4002009E00649483120688842C4
:1053B00002D14FF4002001E04FF0007001494C3958
:1053C000086023E158640240106002402FE1F84970
:1053D000206888425CD9F649A8392068884201D102
:1053E000082051E0F3492068884201D108204BE0B1
:1053F000EF4948392068884201D1082044E0ED494E
:1054000060312068884201D108203DE0E8499039A8
:105410002068884201D1401536E0E64918312068FD
:10542000884201D140152FE0E14930392068884297
:1054300001D1401528E0DF4978312068884201D148
:10544000401521E0DA4978392068884202D14FF4CA
:10545000002019E0D74930312068884202D14FF44A
:10546000002011E0D24918392068884202D14FF457
:10547000002009E0CF4990312068884202D14FF4E2
:10548000002001E04FF00070CA4908390860BDE013
:10549000C7496039206888425CD9C549A839206865
:1054A000884201D1082051E0C2492068884201D1D8
:1054B00008204BE0BE4948392068884201D10820C5
:1054C00044E0BC4960312068884201D108203DE0B9
:1054D000B74990392068884201D1401536E0B54976
:1054E00018312068884201D140152FE0B049303989
:1054F0002068884201D1401528E0AE497831206803
:10550000884201D1401521E0A949783920688842B4
:1055100002D14FF4002019E0A649303120688842BA
:1055200002D14FF4002011E0A149183920688842C7
:1055300002D14FF4002009E09E4990312068884252
:1055400002D14FF4002001E04FF000709849B839C3
:10555000C8605BE09649A8392068884201D10820DC
:1055600051E094492068884201D108204BE09049DD
:1055700048392068884201D1082044E08D496031D3
:105580002068884201D108203DE08949903920688F
:10559000884201D1401536E086491831206888429A
:1055A00001D140152FE0824930392068884201D16D
:1055B000401528E07F4978312068884201D14015A4
:1055C00021E07B4978392068884202D14FF40020DD
:1055D00019E0784930312068884202D14FF4002028
:1055E00011E0734918392068884202D14FF4002035
:1055F00009E0704990312068884202D14FF40020C0
:1056000001E04FF000706A49B8398860E06C40F002
:105610000100E064042084F8350000BF002084F815
:10562000340000BFA06C10B12046A16C88476149CE
:105630004831206888425DD95E480C3800685C4A71
:10564000A83A2168914201D15B4951E0594A216849
:10565000914201D158494BE0554A483A216891425C
:1056600001D1554944E0534A60322168914201D149
:1056700051493DE04E4A903A2168914201D1402182
:1056800036E04C4A18322168914201D140212FE086
:10569000474A303A2168914201D1402128E0454AE9
:1056A00078322168914201D1402121E0404A783A84
:1056B0002168914202D14FF4803119E03D4A3032E5
:1056C0002168914202D14FF4803111E0384A183AF2
:1056D0002168914202D14FF4803109E0354A90327D
:1056E0002168914202D14FF4803101E04FF48001F2
:1056F000084026E12E492068884263D92D48103899
:1057000000682B4AA83A2168914201D12A4957E002
:10571000284A2168914201D1274951E0244A483A58
:105720002168914201D124494AE0224A603221682D
:10573000914201D1204943E01D4A903A21689142AB
:1057400001D140213CE01B4A18322168914201D12D
:10575000402135E0164A303A2168914201D140217A
:105760002EE0144A78322168914201D1402127E08D
:105770000F4A783A2168914202D14FF480311FE0FC
:105780000C4A30322168914202D14FF4803117E047
:10579000074A183A2168914202D14FF480310FE054
:1057A000044A90322168914208D14FF4803107E0D9
:1057B000B860024010640240010080004FF4800194
:1057C0000840BEE0F949206888425DD9F74858385A
:1057D0004068F64A483A2168914201D1F44951E0C3
:1057E000F44A2168914201D1F1494BE0EF4A183265
:1057F0002168914201D1EE4944E0EE4A60322168CD
:10580000914201D1EA493DE0E84A303A21689142AB
:1058100001D1402136E0E74A18322168914201D196
:1058200040212FE0E14A30322168914201D14021EC
:1058300028E0E04A78322168914201D1402121E0FC
:10584000DA4A183A2168914202D14FF4803119E0C6
:10585000D84A30322168914202D14FF4803111E0B0
:10586000D24A48322168914202D14FF4803109E096
:10587000D04A90322168914202D14FF4803101E048
:105880004FF4800108405CE0C84858380068C74AB7
:10589000483A2168914201D1C54951E0C54A216881
:1058A000914201D1C2494BE0C04A1832216891426D
:1058B00001D1BF4944E0BF4A60322168914201D121
:1058C000BB493DE0B94A303A2168914201D14021BB
:1058D00036E0B84A18322168914201D140212FE0C8
:1058E000B24A30322168914201D1402128E0B14AC8
:1058F00078322168914201D1402121E0AB4A183A27
:105900002168914202D14FF4803119E0A94A303226
:105910002168914202D14FF4803111E0A34A48320C
:105920002168914202D14FF4803109E0A14A9032BE
:105930002168914202D14FF4803101E04FF480019F
:105940000840002879D02068406900F080000028D5
:1059500073D02068406920F0800021684861954933
:105960004831206888425CD990494839206888428B
:1059700001D18F4851E08F492068884201D18C487D
:105980004BE08A4918312068884201D1884844E0B8
:10599000884960312068884201D185483DE08349CB
:1059A00030392068884201D1402036E081491831E1
:1059B0002068884201D140202FE07C4930312068A6
:1059C000884201D1402028E07A4978312068884215
:1059D00001D1402021E0754918392068884202D160
:1059E0004FF4803019E0734930312068884202D189
:1059F0004FF4803011E06D4948312068884202D16F
:105A00004FF4803009E06B4990312068884202D120
:105A10004FF4803001E04FF480006649091F0860B0
:105A200025E162496031206888425DD95F49483983
:105A30002068884202D15E4852E029E15D49206831
:105A4000884201D15A484BE05849183120688842B1
:105A500001D1574844E0574960312068884201D15C
:105A600053483DE0514930392068884201D14020F7
:105A700036E0504918312068884201D140202FE09B
:105A80004A4930312068884201D1402028E0494904
:105A900078312068884201D1402021E043491839FB
:105AA0002068884202D14FF4803019E041493031FA
:105AB0002068884202D14FF4803011E03B494831E0
:105AC0002068884202D14FF4803009E03949903192
:105AD0002068884202D14FF4803001E04FF480000A
